{
  "_format": "hh-sol-artifact-1",
  "contractName": "ContractAgreement",
  "sourceName": "src/contracts/ContractAgreement.sol",
  "abi": [
    {
      "anonymous": false,
      "inputs": [
        {
          "indexed": true,
          "internalType": "uint256",
          "name": "agreementId",
          "type": "uint256"
        },
        {
          "indexed": true,
          "internalType": "address",
          "name": "client",
          "type": "address"
        },
        {
          "indexed": true,
          "internalType": "address",
          "name": "contractor",
          "type": "address"
        }
      ],
      "name": "AgreementCreated",
      "type": "event"
    },
    {
      "anonymous": false,
      "inputs": [
        {
          "indexed": true,
          "internalType": "uint256",
          "name": "agreementId",
          "type": "uint256"
        },
        {
          "indexed": true,
          "internalType": "address",
          "name": "contractor",
          "type": "address"
        },
        {
          "indexed": false,
          "internalType": "uint256",
          "name": "amount",
          "type": "uint256"
        }
      ],
      "name": "PaymentReleased",
      "type": "event"
    },
    {
      "anonymous": false,
      "inputs": [
        {
          "indexed": true,
          "internalType": "uint256",
          "name": "agreementId",
          "type": "uint256"
        },
        {
          "indexed": false,
          "internalType": "enum ContractAgreement.Status",
          "name": "status",
          "type": "uint8"
        }
      ],
      "name": "StatusUpdated",
      "type": "event"
    },
    {
      "inputs": [
        {
          "internalType": "uint256",
          "name": "",
          "type": "uint256"
        }
      ],
      "name": "agreements",
      "outputs": [
        {
          "internalType": "address",
          "name": "client",
          "type": "address"
        },
        {
          "internalType": "address",
          "name": "contractor",
          "type": "address"
        },
        {
          "internalType": "uint256",
          "name": "amount",
          "type": "uint256"
        },
        {
          "internalType": "string",
          "name": "description",
          "type": "string"
        },
        {
          "internalType": "enum ContractAgreement.Status",
          "name": "status",
          "type": "uint8"
        },
        {
          "internalType": "uint256",
          "name": "createdAt",
          "type": "uint256"
        },
        {
          "internalType": "uint256",
          "name": "completedAt",
          "type": "uint256"
        }
      ],
      "stateMutability": "view",
      "type": "function"
    },
    {
      "inputs": [
        {
          "internalType": "uint256",
          "name": "agreementId",
          "type": "uint256"
        }
      ],
      "name": "cancelAgreement",
      "outputs": [],
      "stateMutability": "nonpayable",
      "type": "function"
    },
    {
      "inputs": [
        {
          "internalType": "uint256",
          "name": "agreementId",
          "type": "uint256"
        }
      ],
      "name": "completeAgreement",
      "outputs": [],
      "stateMutability": "nonpayable",
      "type": "function"
    },
    {
      "inputs": [
        {
          "internalType": "address",
          "name": "contractor",
          "type": "address"
        },
        {
          "internalType": "string",
          "name": "description",
          "type": "string"
        }
      ],
      "name": "createAgreement",
      "outputs": [
        {
          "internalType": "uint256",
          "name": "",
          "type": "uint256"
        }
      ],
      "stateMutability": "payable",
      "type": "function"
    },
    {
      "inputs": [
        {
          "internalType": "uint256",
          "name": "agreementId",
          "type": "uint256"
        }
      ],
      "name": "getAgreement",
      "outputs": [
        {
          "components": [
            {
              "internalType": "address",
              "name": "client",
              "type": "address"
            },
            {
              "internalType": "address",
              "name": "contractor",
              "type": "address"
            },
            {
              "internalType": "uint256",
              "name": "amount",
              "type": "uint256"
            },
            {
              "internalType": "string",
              "name": "description",
              "type": "string"
            },
            {
              "internalType": "enum ContractAgreement.Status",
              "name": "status",
              "type": "uint8"
            },
            {
              "internalType": "uint256",
              "name": "createdAt",
              "type": "uint256"
            },
            {
              "internalType": "uint256",
              "name": "completedAt",
              "type": "uint256"
            }
          ],
          "internalType": "struct ContractAgreement.Agreement",
          "name": "",
          "type": "tuple"
        }
      ],
      "stateMutability": "view",
      "type": "function"
    },
    {
      "inputs": [],
      "name": "nextAgreementId",
      "outputs": [
        {
          "internalType": "uint256",
          "name": "",
          "type": "uint256"
        }
      ],
      "stateMutability": "view",
      "type": "function"
    },
    {
      "inputs": [
        {
          "internalType": "uint256",
          "name": "agreementId",
          "type": "uint256"
        }
      ],
      "name": "startWork",
      "outputs": [],
      "stateMutability": "nonpayable",
      "type": "function"
    },
    {
      "inputs": [
        {
          "internalType": "uint256",
          "name": "agreementId",
          "type": "uint256"
        }
      ],
      "name": "submitForReview",
      "outputs": [],
      "stateMutability": "nonpayable",
      "type": "function"
    }
  ],
  "bytecode": "0x608060405234801561001057600080fd5b50610f34806100206000396000f3fe60806040526004361061007b5760003560e01c80638458cf8e1161004e5780638458cf8e146101155780638a3b37e214610135578063bd14de9614610155578063c9b99dab1461018857600080fd5b806303a250f91461008057806344ff2b92146100a25780634f9f6fe6146100c85780635686b54b146100f5575b600080fd5b34801561008c57600080fd5b506100a061009b366004610b21565b61019e565b005b6100b56100b0366004610b3a565b610282565b6040519081526020015b60405180910390f35b3480156100d457600080fd5b506100e86100e3366004610b21565b6104a0565b6040516100bf9190610c49565b34801561010157600080fd5b506100a0610110366004610b21565b610606565b34801561012157600080fd5b506100a0610130366004610b21565b6107b2565b34801561014157600080fd5b506100a0610150366004610b21565b610977565b34801561016157600080fd5b50610175610170366004610b21565b610a4a565b6040516100bf9796959493929190610cc3565b34801561019457600080fd5b506100b560015481565b600081815260208190526040902060018101546001600160a01b0316331461020d5760405162461bcd60e51b815260206004820152601960248201527f4f6e6c7920636f6e74726163746f722063616e2073746172740000000000000060448201526064015b60405180910390fd5b600060048083015460ff169081111561022857610228610c11565b146102455760405162461bcd60e51b815260040161020490610d1a565b60048101805460ff191660019081179091556040518391600080516020610edf833981519152916102769190610d42565b60405180910390a25050565b60008034116102d35760405162461bcd60e51b815260206004820152601760248201527f5061796d656e7420616d6f756e742072657175697265640000000000000000006044820152606401610204565b6001600160a01b0384166103295760405162461bcd60e51b815260206004820152601a60248201527f496e76616c696420636f6e74726163746f7220616464726573730000000000006044820152606401610204565b600180546000918261033a83610d56565b9190505590506040518060e00160405280336001600160a01b03168152602001866001600160a01b0316815260200134815260200185858080601f016020809104026020016040519081016040528093929190818152602001838380828437600092018290525093855250506020909201915081524260208083019190915260006040928301819052848152808252829020835181546001600160a01b03199081166001600160a01b03928316178355928501516001830180549094169116179091559082015160028201556060820151600382019061041a9082610e1e565b5060808201518160040160006101000a81548160ff0219169083600481111561044557610445610c11565b021790555060a0820151600582015560c0909101516006909101556040516001600160a01b03861690339083907fe037ec30313eecdd927ffae3beed86a87b82f7bb794966ec08d75cf1a6e8268690600090a4949350505050565b6104df6040805160e081018252600080825260208201819052918101829052606080820152906080820190815260200160008152602001600081525090565b60008281526020818152604091829020825160e08101845281546001600160a01b0390811682526001830154169281019290925260028101549282019290925260038201805491929160608401919061053790610d93565b80601f016020809104026020016040519081016040528092919081815260200182805461056390610d93565b80156105b05780601f10610585576101008083540402835291602001916105b0565b820191906000526020600020905b81548152906001019060200180831161059357829003601f168201915b505050918352505060048281015460209092019160ff16908111156105d7576105d7610c11565b60048111156105e8576105e8610c11565b81526005820154602082015260069091015460409091015292915050565b600081815260208190526040902080546001600160a01b0316331480610638575060018101546001600160a01b031633145b6106845760405162461bcd60e51b815260206004820152601760248201527f4f6e6c7920706172746965732063616e2063616e63656c0000000000000000006044820152606401610204565b600360048083015460ff169081111561069f5761069f610c11565b036106e05760405162461bcd60e51b8152602060048201526011602482015270105b1c9958591e4818dbdb5c1b195d1959607a1b6044820152606401610204565b6004818101805460ff191690911790556002810154471061079357805460028201546040516000926001600160a01b031691908381818185875af1925050503d806000811461074b576040519150601f19603f3d011682016040523d82523d6000602084013e610750565b606091505b50509050806107915760405162461bcd60e51b815260206004820152600d60248201526c1499599d5b990819985a5b1959609a1b6044820152606401610204565b505b81600080516020610edf83398151915260046040516102769190610d42565b600081815260208190526040902080546001600160a01b031633146108195760405162461bcd60e51b815260206004820152601860248201527f4f6e6c7920636c69656e742063616e20636f6d706c65746500000000000000006044820152606401610204565b600260048083015460ff169081111561083457610834610c11565b146108515760405162461bcd60e51b815260040161020490610d1a565b60048101805460ff19166003179055426006820155600181015460028201546040516000926001600160a01b031691908381818185875af1925050503d80600081146108b9576040519150601f19603f3d011682016040523d82523d6000602084013e6108be565b606091505b50509050806109005760405162461bcd60e51b815260206004820152600e60248201526d14185e5b595b9d0819985a5b195960921b6044820152606401610204565b82600080516020610edf833981519152600360405161091f9190610d42565b60405180910390a2600182015460028301546040519081526001600160a01b039091169084907f21d71db5be59bb9fa133895586b7404307dd33fb93b16db09dc6f1d9d7d231b09060200160405180910390a3505050565b600081815260208190526040902060018101546001600160a01b031633146109e15760405162461bcd60e51b815260206004820152601a60248201527f4f6e6c7920636f6e74726163746f722063616e207375626d69740000000000006044820152606401610204565b600160048083015460ff16908111156109fc576109fc610c11565b14610a195760405162461bcd60e51b815260040161020490610d1a565b60048101805460ff191660029081179091556040518391600080516020610edf833981519152916102769190610d42565b60006020819052908152604090208054600182015460028301546003840180546001600160a01b039485169594909316939192610a8690610d93565b80601f0160208091040260200160405190810160405280929190818152602001828054610ab290610d93565b8015610aff5780601f10610ad457610100808354040283529160200191610aff565b820191906000526020600020905b815481529060010190602001808311610ae257829003601f168201915b5050505060048301546005840154600690940154929360ff9091169290915087565b600060208284031215610b3357600080fd5b5035919050565b600080600060408486031215610b4f57600080fd5b83356001600160a01b0381168114610b6657600080fd5b9250602084013567ffffffffffffffff80821115610b8357600080fd5b818601915086601f830112610b9757600080fd5b813581811115610ba657600080fd5b876020828501011115610bb857600080fd5b6020830194508093505050509250925092565b6000815180845260005b81811015610bf157602081850181015186830182015201610bd5565b506000602082860101526020601f19601f83011685010191505092915050565b634e487b7160e01b600052602160045260246000fd5b60058110610c4557634e487b7160e01b600052602160045260246000fd5b9052565b60208152600060018060a01b038084511660208401528060208501511660408401525060408301516060830152606083015160e06080840152610c90610100840182610bcb565b90506080840151610ca460a0850182610c27565b5060a084015160c084015260c084015160e08401528091505092915050565b6001600160a01b038881168252871660208201526040810186905260e060608201819052600090610cf690830187610bcb565b9050610d056080830186610c27565b60a082019390935260c0015295945050505050565b6020808252600e908201526d496e76616c69642073746174757360901b604082015260600190565b60208101610d508284610c27565b92915050565b600060018201610d7657634e487b7160e01b600052601160045260246000fd5b5060010190565b634e487b7160e01b600052604160045260246000fd5b600181811c90821680610da757607f821691505b602082108103610dc757634e487b7160e01b600052602260045260246000fd5b50919050565b601f821115610e19576000816000526020600020601f850160051c81016020861015610df65750805b601f850160051c820191505b81811015610e1557828155600101610e02565b5050505b505050565b815167ffffffffffffffff811115610e3857610e38610d7d565b610e4c81610e468454610d93565b84610dcd565b602080601f831160018114610e815760008415610e695750858301515b600019600386901b1c1916600185901b178555610e15565b600085815260208120601f198616915b82811015610eb057888601518255948401946001909101908401610e91565b5085821015610ece5787850151600019600388901b60f8161c191681555b5050505050600190811b0190555056fe2da7b23ca63c1eb969eee5fae4acb98186abecf5358b0354a82a5183ebca6b2aa2646970667358221220c03132945ddab844672db8f04b474a0d5f7ff474a80c510660c45c34689b373a64736f6c63430008180033",
  "linkReferences": {},
  "deployedLinkReferences": {}
}